:0420000004EF10F0E9
:08200800F86AD09EEA6AE96A59
:10201000B886080EAF6E020EB06EA60EAC6E900EB5
:10202000AB6EC150C00B0F09C16E070EB46E000E2F
:10203000936EFF0E956E8A908A928A948A969EAAD3
:102040002ED09EAAFED7AECF05F0300E055CF90F5C
:1020500026E2070F51EF10F08A908A928A948A96AE
:102060001ED08A808A928A948A8619D08A908A821F
:102070008A848A9614D08A808A928A948A960FD00B
:102080008A908A828A948A960AD08A908A928A94BE
:102090008A8605D08A908A928A848A9600D0CFD781
:1020A0000300E824F76AF736BD0FF66E200EF7221C
:1020B0000A00F550FA6E0800F550F96E58206220BB
:0A20C0006C20762080208A209420F6
:020000040030CA
:0E00000024CC3E1E008781000FC00FE00F4091
:00000001FF
;PIC18F4550
;CRC=BB48  CREATED="25-oct.-23 23:36"
